:020000040800F2
:10000000D4070020890100081F9D0008614B0108EA
:10001000DD010008DD010008DD010008000000002E
:100020000000000000000000000000001D9D00080E
:100030001B9D000800000000199D000807DC000857
:10004000DD010008DD010008DD010008DD01000818
:10005000DD010008DD010008DD010008DD01000808
:10006000DD010008DD010008DD010008DD010008F8
:10007000DD010008C9CE0008E93B0108DD010008E8
:10008000DD010008DD010008DD010008DD010008D8
:10009000DD010008DD010008DD010008DD010008C8
:1000A000F938010825390108DD0100083539010852
:1000B00019390108DD01000809390108BB5C000895
:1000C000BF5C0008B55C0008B95C0008DD010008F1
:1000D000DD010008813C0108DD010008DD3B01086D
:1000E00015DC0008DD010008419E0008DD01000864
:1000F000DD010008DD010008DD010008DD01000868
:10010000DD010008DD010008DD010008DD01000857
:10011000DD010008DD010008DD010008DD01000847
:10012000DD010008DD010008DD010008DD01000837
:10013000DD010008DD010008DD010008DD01000827
:10014000DD010008DD010008DD0100084998000814
:10015000DD010008593B01088D3C01084D3B0108B9
:10016000DD010008DD010008DD010008DD010008F7
:10017000DD010008DD010008DD010008DD010008E7
:10018000DD010008DD010008002103E00D4B5B5894
:10019000435004310C480D4B42189A42F6D30C4A96
:1001A00002E0002342F8043B0A4B9A42F9D30A4882
:1001B000016841F47001016011F010F900F010F8CD
:1001C0007047000080AC010800000020D40300202C
:1001D000D8070020F448002088ED00E0FEE700008A
:1001E0002DE98048C64CC74B2360A3B00023636051
:1001F00010F0AFFDA24618B910F0CEFD0AF0BEFF18
:10020000C14DC24FC24CDFF87CB30BF071F82B78B4
:1002100043F001032B7011F087F8BE4BFB60636F56
:10022000CAF80830BC4BBB60636BBC4823F080034A
:100230006363636F43F080736367226BB84B134350
:100240002363636B6363A36BA363226CB54B13439C
:100250002364626CB44B134322AE636401238DF8B4
:10026000533048F2FF7346F83C3D4FF000093146E9
:100270004FF6FF788DF850908DF851908DF8529090
:1002800009F032F83146A948CDF84C8009F02CF835
:100290003146A748CDF84C8009F026F8584631463B
:1002A00009F022F83146A348DFF8DC8209F01CF897
:1002B0003146A14809F018F83146A04809F014F871
:1002C00031469F4809F010F831469E4809F00CF875
:1002D000304608F0C5FF9C4B9C48A8221A6049464E
:1002E000102215F090FD9A4B9A4A5A60F02287F836
:1002F00023200722984FC3F80890DFF890C21A60B5
:10030000BB68CCF8003098E80F0086E80F00236B3C
:10031000CDF80CC043F008032363236B139843F01C
:10032000080323634FF48043ABF818304FF40043C5
:10033000ABF8183014A90CF0C9FE16A915980CF0EA
:10034000C5FE64200DF055FCA0228448494615F0F6
:100350005AFD236C824ADDF80CC043F0130323647A
:10036000636C43F00113636402F1C0000295E3463D
:100370004646937BD17B03F00704A40001FA04FEF8
:100380005168DB0801EB83034FF00F0C196A0CFA7C
:1003900004F421EA040119621C6A10324EEA0401D5
:1003A00082421962E5D10023554D05F10C0200216E
:1003B000995401330C2BF7D1FF232B766B76AB7658
:1003C000EB76684B684CDFF8C8911C60674B0422E1
:1003D0001A704846302215F016FD142389F80030B3
:1003E000022389F81830052389F82430604B97F8E8
:1003F000059083F80090A4F5F173EB615D4BA4F5D3
:1004000091741C605C4BDBF8004003EBC903A00651
:100410005B782B6244BF01232B620023574A40F2D2
:10042000DC5122F813100133082BF7D10BA800215F
:10043000202215F0E8FCB9F10E0F03D009F0EF030C
:10044000082B02D101238DF8403005200DF08CFAE5
:1004500018B14088003018BF0120C4F340038DF864
:100460003330C4F380138DF83730C4F340338DF844
:100470002C30C4F3C03300F001008DF82F3014F499
:1004800000638DF8320004D097F88231591E4B4238
:100490004B418DF83030C4F300438DF83830DAF832
:1004A00020303748003318BF01238DF83930C4F3AA
:1004B00040538DF83A30B7F84631ADF83E30B7F8D2
:1004C0005231ADF83C30C4F380438DF83430C4F37E
:1004D00000538DF8353097F85431003318BF01239D
:1004E0008DF83630B7F85031ADF84230002197F82A
:1004F000D4318AF8243004F00109C4F3C00549E07E
:10050000D807002043AB00088048002000ED00E041
:10051000003802400005FA05000000080000024013
:10052000FF916700FFC9FE36335F070000040240F9
:10053000000802400010024000140240001802406F
:10054000001C024000200240141F0020181F002041
:1005500010E000E03F900200483C0020F02700201F
:10056000E86B0108584400203A3E00204A1700205A
:100570009C0E00200C2900202C8301088A160020E4
:10058000E8150020000C02403C6B01088C44002060
:100590005C44002064228DF82D908DF82E50ADF82B
:1005A000441015F030FC9DF84030002B0CBF0023A8
:1005B0000223B9F1000F00D105B1013306EB830628
:1005C0004FF0000833699D1E1633039335F8023F40
:1005D0004FF6FF72934200F0B381DAB2190A9DF828
:1005E000383033B11301AF48C058AF4B984200F0D8
:1005F000A3819DF8333053B1AA4BAC4C03EB0213EB
:100600005868A04203D11B89012B00F095819DF809
:100610002F3053B1A34BA64C03EB02135868A042F2
:1006200003D11B89022B00F087819DF8303053B134
:100630009C4BA04C03EB02135868A04203D11B89CA
:10064000202B00F07981022902D19DF82C3003E0A3
:10065000012904D19DF82D30002B00F06D81DFF8C9
:1006600044929DF83A00160109EB06044B4630B15E
:100670009DF8400018B9043A032A40F23D8101294F
:10068000C8B252D19DF835203AB99DF8342022B92C
:10069000BDF84220B2F5FA7F07D959F806208649FD
:1006A0008A4202BF854A0C2111703344FF22002781
:1006B0008AF86C208AF86D2058685A7B8AF8707026
:1006C00003F1080B1B89ADF84C3013A90223CAF8BB
:1006D0007C408DF84F308DF84E208AF82870CAF88B
:1006E0002C70CAF83070CAF83470CAF868708AF88A
:1006F0006E708AF86F700CF0E9FC9BF8021059F8E4
:1007000006003A460CF01CFB204612F0F6F96C4B42
:100710006C49CAF880306C4BCAF88430CAF88870CB
:1007200020460A1D13F09EF906E1022843D15FFA24
:1007300088F34FF01C0909FB03F90AEB09070122B2
:1007400087F87020574A87F8718091194FF0000B95
:10075000D1F804C091F80DE08DF84F0001F10803C5
:100760000989ADF84C10604613A987F872B087F874
:100770007AB0FC678DF84EE0059204930CF0A6FC6D
:10078000049B059A997890595A460CF0D9FA20465C
:1007900012F0B3F94B494D4AC7F8802049444C4AFE
:1007A000C7F88420C7F888B020460A1D13F05AF90C
:1007B00008F10108C0E0032840F09C809DF8343027
:1007C000444E454F1BB39DF8363096F801907BB1EF
:1007D000BDF84220414BB3FBF2F22046BDF8443055
:1007E0000C2192B20CF09DFC3D4B47F8290008E02B
:1007F00020460C214FF6FF720CF093FC394B47F862
:100800002900C360B378192206EBC3033FE09DF8CB
:10081000352082B14FF6FF7220460C2196F80190E8
:100820000CF07FFC304B47F82900C360B3782922D5
:1008300006EBC3032BE0BDF8422096F80190B2F519
:10084000FA7F12D9254BB3FBF2F2204692B2BDF8E3
:1008500044300C210CF065FC244B47F82900C360A0
:10086000B3780D2206EBC30311E0214BB3FBF2F288
:10087000204692B2BDF8443001210CF052FC184BD6
:1008800047F82900C360B378092206EBC3035A7105
:10089000B378727806EBC3010A7101328C60727012
:1008A00048E000BFE86B0108000C0040000802406F
:1008B000000402400000024000000140000000204F
:1008C00051CA00085808002049CB000859CE00083A
:1008D00029CA0008E8150020BC270020001BB7002B
:1008E000C5CB000895CB000859CB0008D5CB000834
:1008F00040420F0004281FD15F4EBDF83C20B37862
:10090000377806EBC30301211F7120465B4B93FB35
:10091000F2F2BDF83E3092B20CF003FC0AEB870312
:100920000A21C3F85001B37806EBC3025171327843
:10093000013232700133B370039B9D427FF446AEA7
:100940004D4B4F4F1B788AF870314E4B1E78A6F1F5
:1009500017030024022B3C701AD8DAF81C30234409
:10096000D3ED007AF5EE407AF1EE10FA03D1DAF821
:10097000203053BB24E0444A04EB020E0FCB8EE838
:100980000F003B7810340133C02C3B70E5D1EEE70B
:100990003E4B13F836E087F800E003EBC603D3F8CC
:1009A00004C0BCF1000FE2D07445E0DA364A2301FE
:1009B00003EB020863440FCB013488E80F00F3E730
:1009C000334C2368DA0426D41FE0324B324A13F842
:1009D0003600107003EBC6035C68002CF0D00023D7
:1009E0008342EDDAC3EBC3016218DFF8B8C0D2F876
:1009F000008041F80C8001EB0C0E9188AEF80410D9
:100A000092798EF806200133EAE706F0EF03082B0F
:100A1000224B1FD120E03A78012AF6D9204B03EB74
:100A20000212103210339342EFD053ED047AB6EE37
:100A3000007A67EE877A43ED047A53ED057A67EE24
:100A4000877A43ED057A53ED037A67EE877A43EDB3
:100A5000037AE7E70E2E08D11A7842F010021A70D6
:100A6000182E21D111F096FA1EE01A7822F0100209
:100A70001A70192EF5E700BFE815002040420F005C
:100A8000EC2700209C0E0020D80D00202C830108AC
:100A90008C4400201879010898280020D4160020E2
:100AA000E00D00209928002011F058FA2368C44C6A
:100AB000C44DC54F13F4A01F02BFC44B01221A70CE
:100AC000029B029A1B7843F0040313704FF001035A
:100AD000ADF84C3011238DF84E30236B13AE4FF030
:100AE000020843F0010328468DF84F803146236306
:100AF0000CF0ECFAB64BB74A1A6000200DF0A2F8E1
:100B0000B54B93E80300236B86E8030043F004032E
:100B10002363139814A90CF0D9FA636C43F480533F
:100B20006364636A43F4805328464FF003096362A9
:100B30003146A0238DF84E80ADF84C308DF84F90A3
:100B40000CF0C4FA284640233146ADF84C308DF8FD
:100B50004E800CF0BBFA28464FF0100C4FF001030A
:100B60003146ADF84CC0CDF810C08DF84E308DF840
:100B70004F900CF0ABFA2B6A984A23F470032B6267
:100B80002B6A43F4A0032B622B6A23F070632B6261
:100B90002B6A43F0A0632B622B6A23F070432B6215
:100BA0002B6A43F0A0432B62636A43F48053636271
:100BB000636A23F480536362138803F4415343F45C
:100BC000457343EA09031380938B23F400631B04EA
:100BD0001B0C93834FF00703138213889BB243F0DF
:100BE00040031380236C43F480432364236A05F598
:100BF000806543F480432846236231464FF4005316
:100C00004FF4004BADF84C308DF84E808DF84F907E
:100C10000CF05CFA284631468DF84E80ADF84CB0A9
:100C20008DF84F900CF052FA28464FF4804331462D
:100C3000ADF84C308DF84E808DF84F900CF046FAA0
:100C40004FF480624FF0010338463146ADF84C2036
:100C500003928DF84E308DF84F900CF037FA6B6A96
:100C600023F470036B626B6A43F4A0036B626B6ADC
:100C700023F070636B626B6A43F0A0636B626B6A14
:100C800023F070436B626B6A43F0A0436B627B6A34
:100C900023F470637B627B6A43F4A0637B62236A04
:100CA00043F480432362236A23F4804323624C4B42
:100CB000198801F4415141F4457141EA0901198053
:100CC000998B21F400610904090C4FF00702998304
:100CD0001A82198889B241F0400119804FF480537B
:100CE0002B83216C029341EA0B012164216A05F5F3
:100CF000806541EA0B01216228468DF84E8031461D
:100D0000039AADF84C208DF84F900CF0DFF9029B60
:100D10008DF84E8028463146ADF84C308DF84F9016
:100D20000CF0D4F94FF4006331462846ADF84C304E
:100D30008DF84E808DF84F900CF0C8F96B6ADFF893
:100D4000A88023F470636B626B6A43F4C0636B62C8
:100D50006B6A23F470436B626B6A43F4C0436B624B
:100D60006B6A23F470236B626B6A43F4C0236B627B
:100D7000236A43EA0B032362236A23F400432362BA
:100D8000184B1A8802F4415242F4457242EA0902B1
:100D90001A809A8B22F400621204120C9A834FF08C
:100DA00007021A821A8892B242F040021A8000208A
:100DB000A5F818B004F082FDD8F8004016E000BF96
:100DC00000380240000002400010024008130020DA
:100DD000381F00200DD400085C6B01080030014072
:100DE00000380040003C00408C440020DDF810C07A
:100DF00004EA0B03DFF850B30293584604F400638F
:100E000000216246039314F0FEFF4FF6FF7309932F
:100E100014F002044FF000038DF829308DF82A30C9
:100E20008DF82B308DF8289017D022A90493012338
:100E300041F8643D284608F057FA4FF001038BF85B
:100E40000030049B8BF801304FF001038BF8023027
:100E50004FF007038BF803300124029B9BB122A9BA
:100E6000022341F8643DA64808F03EFA0C23012213
:100E70008BF804308BF80620631C07228BF80540A2
:100E80008BF80720DCB2039B9BB122A9202341F8F9
:100E9000643D9C4808F028FA022301228BF80C30AC
:100EA0008BF80E20631C07228BF80D408BF80F2067
:100EB000DCB2954B95481A6BDFF8509242F48002F1
:100EC0001A631A6B42F004021A635A6C42F480727D
:100ED0005A6408F019F9304608F0DAF88C4B14938C
:100EE000012C8C4B15934FF000058CBF4FF48063A1
:100EF0002B4619934FF400631A934FF400531B933E
:100F00004FF480731C9331464FF4003348461794D6
:100F10001D9313951695189508F0CBF8D9F8003065
:100F20007D4A43F00103C9F8003051687B4B0B4008
:100F300043F440337A4953604B68012C23F04073EB
:100F400094BF0022012223F4807343EA02234B6002
:100F50008A68744B134043F002038B60CB6A013CF8
:100F600023F47003E4B243EA0454CC6201230BEB94
:100F700005029078002859D01BF80540D278581CFB
:100F8000092CC0B211D9A4F10A0ED1F80C900EEBC5
:100F90004E0E4FF0070C0CFA0EFC29EA0C0C02FA6C
:100FA0000EF24CEA0202CA600EE0D1F810C004EB67
:100FB00044094FF0070E0EFA09FE2CEA0E0E02FA53
:100FC00009F24EEA02020A61062B0ED8013B4A6B77
:100FD00003EB83034FF01F0E0EFA03FE22EA0E020C
:100FE00004FA03F313434B631FE00C2B0ED8073BAB
:100FF0000A6B03EB83034FF01F0E0EFA03FE22EA87
:101000000E0204FA03F313430B630EE0A3F10D0287
:10101000D1F82CC002EB82021F2393402CEA030E6E
:1010200004FA02F34EEA0303CB6203460435102DA3
:101030009DD18B683C4D43F400738B608B6843F407
:1010400080738B608B6843F001038B608B6843F087
:1010500080438B60B5F85831002B41F07780B5F9AB
:101060005A21002A41F07280B5F95C21002A41F032
:101070006D802E4B2E481B682E4CB3F862300293C5
:1010800000210C2295F85F9195F861B114F0BBFE38
:1010900000211422284814F0B6FE00238AF871318A
:1010A000194684F872310C2204F5BA70039314F0D7
:1010B000AAFE224ACAF8802123200CF09AFD75204E
:1010C00001210DF11F0204F0B9FD00283ED01C4A99
:1010D000039BC4F878211B4AC4F87C21432284F87E
:1010E00074211846012108AA04F0A8FD9DF82030BB
:1010F00003F07E038DF82030002870D178E000BF27
:1011000000040240000002400038024070640240C7
:101110004C200140181A002000230140E030FCFF61
:1011200000200140FDF7FFC0483C00209C16002035
:1011300074290020D8070020C0460020646B0108F5
:101140003D5C0008B95B0008081A002094F884315F
:101150006BBB934A9348536C032143F010035364D1
:1011600001224FF480638DF84F1031468DF84E20E8
:101170000492ADF84C3003930BF0A8FF8A49039B0F
:101180003B830B88049A23F040031B041B0C0B8049
:101190000B8823F038031B041B0C43F030030B8037
:1011A0000B889BB243F040030B8084F884217520A8
:1011B0000121324604F04EFB9DF84C30712B01D0DA
:1011C000702B5AD1052384F87131432384F874318C
:1011D000764BC4F87831764BC4F87C314DE0682BFF
:1011E00006D1012384F871311D2384F8743144E061
:1011F0009DF81F3003F07E03682B8DF81F3037D128
:101200000223062084F871310146D4F87831324641
:1012100098479DF8511001F001029DF84F1001F020
:1012200001014B0043EA82019DF84D2002F00103C9
:101230000B430AD05BB2012B01D1002302E0022B49
:101240000FD1012384F8723117E05A4B0C20D3F8E8
:101250007831012109AA98479DF8243013F00F0333
:1012600003D103200CF05EFD07E0042BE9D1E4E795
:10127000702B04BF042384F871314F4E9AF871111A
:10128000002333700B1F012B15D84C4B4C4A1A60AE
:101290004C4A5A604C4ADA604C4A4D4F1A614D48EC
:1012A00004223270072202703A6842F001023A606A
:1012B0004A46994603E001200CF034FDB0E00A2ACA
:1012C000134628BF002301229A4040F2022E02EA70
:1012D0000E0EBEF1000F19D140F2FD1E02EA0E0EF5
:1012E000BEF1000F12D004290ED13B4B3B4A1A60CD
:1012F0003B4A5A603B4B04221A70082343703B68F8
:1013000043F002033B6007E00529EED0012B4FF0CC
:101310000002D4D8334B1A703B689B0702D52E4B82
:101320001B689847304BFA221A604FF0000A0223DC
:1013300084F8863184F885A1D9F80030584698475A
:101340002A4B95F8552183F800A002B1327095F828
:1013500056210AB123490A7095F8572102B11A7033
:101360003B68234913F0080F46D0BDF908A0DFED14
:10137000216A64229AFBF2F302FB13A212B207EE77
:10138000902AB8EEE77A07EE903AF8EEE77AE7EEC1
:10139000267AB2EE047A67EE877AC1ED007A2DE004
:1013A0000038024000100240003800405558000844
:1013B0008D580008D8070020F20C0020C0460020FD
:1013C000FD560008415400082554000890C1793D9D
:1013D000501600205803002074290020A957000847
:1013E000B5540008E1480020CC160020E00C002095
:1013F000780D00208988883C00230B60BD4A138843
:1014000023F040031B041B0C1380138823F03803C4
:101410001B041B0C138013889BB243F04003138002
:10142000B54A137843F002031370B44B4FF40042F3
:101430005A834FF480421A830A27B04E736983F4AB
:1014400000437361736983F48043736119200CF066
:10145000D0FB01200CF0F6FB19200CF0CAFB013F79
:1014600000200CF0EFFB17F0FF07E6D14FF48043AC
:1014700033834FF400433383A14B9FEDA28A1B6853
:10148000A14E1B7B00EE103AB8EEC00A4FF01F09C8
:1014900020EE080A09F00AFE9C4B9FED9D7A83ED31
:1014A000000A9C4BD3ED047A9B4B67EE887AC3ED20
:1014B000007A9A4B1B8807EE903AF8EEE77AC7EE6F
:1014C000277A9FED977AC7EE877AC4ED627A10F09B
:1014D000A3FD944BFF211846212214F094FC0770C1
:1014E000376891490296012217F0020F18BF427027
:1014F0000A701FBF03220A70022282700A787E07D8
:101500000B464FF01B0E02F1010148BF864E00F85A
:1015100002E0C9B248BF0232197044BF3270814A3A
:10152000804E44BF4FF0030E02F801E01A781B21F1
:101530008154511CC9B24FF01C0C00F801C0911C21
:10154000C9B24FF01D0C00F801C0D11CC9B24FF058
:101550001E0C00F801C002F1040C511D5FFA8CFC56
:10156000C9B217F00A0F197000F80C900DD00427BB
:101570007754911DC9B20527775402F108076A49CB
:101580000732D2B20F700621B154D8F800108A0683
:1015900041BF1A78571C1F70072748BF87540F0692
:1015A00008D51A7809278754971C0132D2B21F70C8
:1015B0000A2787546F79082F01D00E2F08D11A7887
:1015C00002F1010E83F800E04FF00B0E00F802E08C
:1015D0001A78CE0302F1010E4FF00C0C48BF524EA8
:1015E00000F802C05FFA8EFE48BF023283F800E0C6
:1015F00041BF32704B4A4FF00E0C02F80EC04A0742
:1016000041BF1A7802F1010E83F800E04FF0100E8E
:1016100048BF00F802E01A7802F1010E5FFA8EFE70
:101620004FF0120C4E0583F800E000F802C00AD516
:1016300095F814623EB13C4E02323270394A4FF096
:10164000130C02F80EC08A0541BF1A7802F1010E90
:1016500083F800E04FF0150E48BF00F802E0182FA5
:1016600013D11A784FF0160E00F802E002F1010EC5
:101670005FFA8EFE4FF0170C00F80EC002F1030E59
:101680000232D2B283F800E087540E0341BF1A78C9
:10169000571C1F70192748BF8754CA0548BF1A78BE
:1016A000224F41BF511C19701A2181541A78511CC4
:1016B000197014238354002198221D4814F0A3FBB1
:1016C00011F015FB1B4B1C491C4819601C4BB5F84D
:1016D0004E2101601B491A8000231B4AD7F800E005
:1016E0000B70B5F89411138093701FFA81FA0EF104
:1016F00085022BE00038004080480020000C0240AA
:101700004C0D002035FA8E3C501600207C0D002038
:101710000AE81C41C0460020680D00200C00002093
:1017200000401C465D1600205C1600209C16002020
:10173000B03B002028140020CE3D0020B41A002029
:101740002C14002062130020C01A0020A74EDFF8DE
:1017500004C33068DFF800B32CF813A000F59670CE
:101760004BF823000133122B6046B146EED1D8F876
:101770000060F30458BFB5F89CA1ACF806A00EF1C8
:10178000D50E1378F3B992F80280D378984519D220
:10179000B8F1000F08D008F1FF3808EB880808EB13
:1017A000880808F5617306E0013303EB830303EB5C
:1017B000830303F5617392F8018008F104089BB27A
:1017C00020F8183004327245DBD1330740F1BB807A
:1017D00095F88E31062B00F2B080DFE803F00407A5
:1017E0000E354F6D6D0045F2F05201E042F6F822E1
:1017F0007F4B1A8011F019FB9EE07D4B42F6F822D8
:101800001A8009010A2391FBF3F10023A1F5B061CD
:10181000784A42F823100133122BF9D1764A7749DE
:101820001160774A402013700CF0D8F8002800F0BF
:10183000848001234FF0070E90F90000714A8DE873
:1018400008404021704B72E0694B42F6F8221A8042
:10185000694B6E4A1A606A4B102240201A700CF0D5
:10186000BDF8002869D00123002690F90000684ADD
:101870008DE8480040214FF4E13358E05C4B42F6DC
:10188000F8221A805C4B634A1A605D4B08224020A4
:101890001A700CF0A3F800284FD00123002590F90E
:1018A00000005D4A8DE8280040214FF4E1330BF041
:1018B000B7FDC4F88C013CE04D4ADFF8A081DFF8A9
:1018C000A0C1564E564D574842F6F82111804C495A
:1018D0000C22062B0A700ED0002388F800308CF8FA
:1018E000003033701B232B704F4B027005221A708F
:1018F0004FF4E1350BE0002188F800108CF800105F
:10190000317002702121484A2970484D13703A4BBA
:10191000474A1A6040200CF061F870B101210023A1
:10192000444A90F900008DE80A0040212B460BF054
:1019300077FD003018BF012028B9082009F0DEFB30
:101940002D4B3D4A1A603D4D2D4A2B6813F4804FB4
:101950001FBF122111702849394818BF086042F290
:101960000101194003F0010003F4005681B1204940
:1019700044F6206CA1F800C026B1082111701E4960
:10198000304E0E6020B10C2111701B492E480860AA
:101990001178043951701A0640F19E804FF0000A08
:1019A000DFF8C080DFF8C0B0284E2948C4F890B1F5
:1019B0005146152288F801A0C8F804A0C8F808A06C
:1019C00014F021FAABF10503504633600AF070F9C8
:1019D000D9F80030C8F80C3002200BF0FFFFB646F3
:1019E000002843D1802009F089FB6EE0A03500205B
:1019F000BA0D0020BC18002060030020358A0008C2
:101A000050440020BD8C0008A0860100218A0008F7
:101A1000118C0008098A0008C58B000848190020AD
:101A20004A190020491800204B19002090D00300CB
:101A3000318900089D8A0008998A00088C4400209A
:101A4000698A0008898A0008798A0008A448002069
:101A50006C09002090440020AC1300204A1800209C
:101A600049190020844800203A3E002098F80130AF
:101A700090F805C0CA490C2202FB03125278624555
:101A800004D00133DBB2042BF4D9002388F80130F1
:101A9000DEF8003098F801201B7890F90000002B48
:101AA0004FF00C0303FB021314BF03260126002290
:101AB0005B780096019202210BF0B2FCB94B1860E2
:101AC00000288FD001200AF0F3F83868B64B00F5F3
:101AD000CB721A600AF004FAB44AB54B1360B54AE7
:101AE000B54E803313602B68002713F4803F3770A6
:101AF0000DF14C0800F0BE80DFF8F4B240F22A3A53
:101B00004FF001090CF03CFE39465246584686F823
:101B1000009014F078F9A94BA94E1A6B42EA090219
:101B20001A631A6C42F008021A641A6B42F400122B
:101B30001A63022330468DF8283009A903238DF853
:101B40002930CDF824908DF82B908DF82A7007F06D
:101B5000CBFB326A9B4B22F00F023262326A42F0B8
:101B6000020232621A8822F001021204120C1A8058
:101B70001A8822F45C721204120C1A806822DA624B
:101B80001F85A3F814901A8C22F001021204120C83
:101B90001A841A8C9888198B22F0020221F07301A2
:101BA00009041204090C120C41F0600180B242EAEF
:101BB0000902988019835F631A841A8B22F0080245
:101BC0001204120C42F008021A831A8806F5C04665
:101BD00092B2403642EA09021A80326822F00102CB
:101BE0003260304607F090FA404607F051FA4FF065
:101BF00040621392744A1492402216924FF480620B
:101C000019924FF480521A924FF480421B924FF473
:101C1000403241461D92304604221E92CDF854B007
:101C2000CDF85CA018971C971F972097219707F075
:101C300040FA3268654B42F0100232604FF40012F5
:101C40009A6008A80D238DF820308DF821908DF82A
:101C500022708DF8239007F0DDFA39465C4B1A6844
:101C60005C4B43F8212001312029F7D10BF050F9CA
:101C70000BF04EF92B685B0555D5574BD4F8D4942F
:101C8000C3F8009004200BF0A9FE0421C4F8D80486
:101C90000BF07EFE514B84F8DC040820C3F8009062
:101CA0000BF09CFE4E4B4F4F186008210BF070FE5E
:101CB000002184F8DD042C22384614F0A4F88E2389
:101CC0007B704FF07C0BE0234FF07D0AFB7087F8B0
:101CD00000B087F82BA0444F2C220021384614F086
:101CE00092F88A237B701020A023FB7087F800B045
:101CF00087F82BA0C4F8E0940BF070FE1021C4F814
:101D0000E4040BF045FE84F8E8042020C4F8EC94C9
:101D10000BF064FE2021C4F8F0040BF039FE84F8C7
:101D2000F4040CF0BDFB314F3B8823F040031B044F
:101D30001B0C3B803B8823F038031B041B0C3B80AF
:101D40003B889BB243F040033B804FF000099F2348
:101D500032208DF824308DF825908DF826908DF85E
:101D600027900BF046FF8DF84D9009F1804909F559
:101D700001394FF0080A09AA0423A9F81AA0384625
:101D800041460BF00BFBA9F818A09DF84E209DF8DA
:101D90004D3002FA0AF242EA03429DF84F3029E040
:101DA000FCA801081C2600208814002060260020C2
:101DB0006C3E0020542600202C1D002000380240DC
:101DC00000000240000C0040340C00400060024063
:101DD0007C6B01082E1D002064170020A017002036
:101DE000E817002070170020A4170020003C0040D6
:101DF000810900201A43884B9A42884B17D008D893
:101E000087498A420CD001F51A4102318A4209D031
:101E10001BE084498A4205D001318A4207D014E090
:101E2000202200E080221A804FF4807202E04FF4FA
:101E300080721A805A809A88198812029A604A43DE
:101E4000DA60012284F8F52404E000221A805A8026
:101E50009A60DA60DC681CB3E40AA1464FF0000A1D
:101E6000A24509DA0AEB04077F10F8024146102266
:101E700011F018FD0F2807DC0AF09AFA6A4B4FEAB6
:101E8000C922C3F8F8240BE0002358F823200132BC
:101E900040F058810133042BF7D1B9463C46DFE7C7
:101EA0002868624B10F4002218BF01221A70604BA0
:101EB0005A79052A194602BF5E4B4FF4C8721A8040
:101EC0005D4B4FF47A721A805C4A137843F0080332
:101ED00013705B4A137823F00203137040F6020379
:101EE00003406BB1574B584A1A60584B03221A7083
:101EF000574B01221A70574A00231380564A138009
:101F00005648574B8A682A6001211970037863F09C
:101F10007F0303705348544B006883F84010053822
:101F2000642838BF64205864029883F8A8100068B9
:101F300083F8DC10C0F3400083F8740040F6020020
:101F40001040003083F84411C2F3C01118BF0120C3
:101F500083F87811C2F38021C2F3004283F81001A4
:101F600083F8AC1183F8E02102930BF01BFEDFF83D
:101F7000FCA03D4CCAF8000004F5027523464FF062
:101F8000FF3BD1461A7D062A0CD119699A690A4489
:101F9000811A002904DA121A934528BF934601E0FA
:101FA0004FF0000B3433AB42ECD1DFF87C800027DC
:101FB000D8F8FC3403930A2639463D46237B5FFA62
:101FC00087FC002B73D06268002A51D0637D6BB10F
:101FD000E269D9F8003020699B1A227DB3FBF0F347
:101FE00001339BB2238413FB02F34EE0D9F80000C7
:101FF000A369CDF814C0C01A049190470499DDF884
:1020000014C030B1194B1B68E36101232384237D85
:102010003BE020843DE000BF18BA20001000002003
:10202000152020001740EF00D807002009130020DA
:10203000483C00204014002012150020D416002037
:1020400052170020041A0020C03D002072290020F1
:102050005C030020FC440020FE4400208048002057
:1020600008130020CC1600204C010020A8480020B6
:10207000A269D9F8003020699B1AB3FBF0F39AB239
:10208000228432B1207D13FB00F3013301356375E7
:10209000ADB2039A637D934505D8228C012A02D8FC
:1020A000227D062A03D18B4284BF1946664601373A
:1020B0000A2F04F1340481D1D8F800355B4A5C4C16
:1020C0000133C8F80035D8F804350A2E1D44C8F885
:1020D00004552FD0029BDAF800101670342505FB4A
:1020E0000635AB69A961CB1A0021AB6269750BF0AB
:1020F00059FDAB68074603B198470BF053FD029AB0
:10210000342303FB0626C51B736AC3EB43132B441E
:102110005B097362336B2B443363F36A9D422CBFBC
:10212000F562F3620BF03EFDDAF80030C01A451B91
:10213000E5801AE716700BF035FDDAF80030C01AAA
:10214000E08012E707F1010A2746A7E61BB208EE76
:10215000103AB5F95A31DFED377A374A09EE103ABD
:10216000B5F95C31B8EEC88A08EE903A28EE278AB5
:10217000B8EEC99AF8EEE88A0021B0EE480A29EED6
:10218000279A68EEA78A117008F090FFF0EE40AA37
:10219000B0EE480A08F029FFF0EE409AB0EE490A86
:1021A00008F084FFB0EE40AAB0EE490A08F01DFF27
:1021B000B0EE408AB0EE680A08F078FFB0EE409AC0
:1021C000B0EE680A08F011FF60EE2A6A69EE897ABB
:1021D000F0EE665AE7EE885A184B29EE2A6A29EE85
:1021E000807AC3ED035AF0EE465A2AEE400AE7EE33
:1021F000485AE6EE887AA6EE487A29EE0A9A83EDE6
:10220000010A69EECA9A2AEE2A0A83ED009A83ED42
:10221000028AC3ED045AC3ED059A83ED067AC3ED35
:10222000077A83ED080AFEF724BF00BF01000020F3
:102230004217002035FA8E3C34000020E0190020BF
:102240002DE9F04FB44C2378092B9CBFB34A3421BD
:102250002DED108B98BF01FB03238FB094BF9E6AB6
:102260000026AF4D07A8EB6898479DF81C3023B1B6
:102270002378092B0DD9002310E00BF093FCA94B18
:102280001B68F31A1844A84B1B6864339842E8D3C0
:10229000EEE7A24A342101FB03239B6AA34ADFED48
:1022A000A4AAA44CA44E9BB207EE903AB8EE670ADB
:1022B000138060EE2A0AA14B20460121C3ED000ADB
:1022C00008F046FCFCEEC07A9B4817EE903A23815A
:1022D0006B68984740B99A4B9A4F1A6812F0020FF0
:1022E000984640F0A180EBE3974FA27A3046314602
:1022F00007F032F83B8804F1580A002B6CD0E368F1
:102300001B7808EE103A04F1100804F11C054FF098
:1023100000093988B1F57A7F02BF0023C8F8003080
:102320002B61D8F8002036F919301A4407EE903A9C
:102330002B69C8F800200133012B4FEA490BF8EE56
:10234000E77A2B6106D10023C5ED017AC5ED007A4D
:10235000AB601BE0D5ED006A07EE103A37EEE66A97
:10236000B8EEC77A86EE077A36EE877AD5ED026A3E
:1023700085ED017A77EEC77A85ED007AE6EE276A79
:10238000F0EE667AC5ED036AC5ED026A0023012905
:1023900026F80B302AF80B302AD12B69012BC3BF4A
:1023A00003F1FF3300EE103AD5ED037A9FED740A86
:1023B000C4BFB8EEC00A87EE800A13F0D9FF18EE4A
:1023C000103A5BB1F8EEC87AB4EEE70AF1EE10FA13
:1023D00004DD4FF47A733B8000231AE0D8F8003014
:1023E0004FF47A7203F5FA7393FBF2F32AF80B3089
:1023F00009F10109B9F1030F08F1040805F1140509
:1024000087D13888012801D10BF03AFC3B88013B89
:10241000E1E736F813203AF81310521A26F8132081
:102420000133032BF5D156E7484B1B78002B00F006
:1024300047830BF0B7FB236E2066C31A0FEE903A6A
:102440000025D4F864A0DFF828919AF8001099B11B
:1024500037F915303E4800EE103AF8EE6F0AB8EE44
:10246000C00A00EBC50060EEAA0A08F071FBFDEEA1
:10247000C07A17EE903A01E037F8153029F8153098
:102480000135032DDDD1D8F80030324A13F0080FA2
:1024900009D0B2F9001031B1B2F9021019B1B2F994
:1024A0000410002934D12C49097801F0100000F003
:1024B000FF05002869D013F0200566D001F0020363
:1024C00003F0FF05002B60D0244B1B78042B5BD955
:1024D000234B1B88B3F5967F56D3224BB3F90430B8
:1024E00007EE903A204B1B88B8EEE77A07EE903A59
:1024F000F8EEE77AB2EE048A87EE888A01254FF07B
:10250000000B77EE487A9FED198A27EE888A3FE024
:1025100000254FF0010B39E0010000204C010020A4
:10252000C0460020A8480020CC1600204C160020F1
:10253000BD378635E80C002084160020682700206F
:1025400050160020B048002012150020E04800205E
:10255000500D00204C170020D4160020D516002066
:10256000E2160020B8160020E416002035FA8E3C52
:102570007E160020DB0F4940DB0F49C0DB0FC9404E
:10258000000000000AD7233C0025AB461FED048A5B
:10259000B6F90030B2F80080978808EE903AB6F9A4
:1025A0000230F8EE6F7A09EE903A67EEAAAAF8EEDA
:1025B000E99AD4ED207AB6F90430568869EEA79AE4
:1025C000F8EEE88A09EE103A68EEA78A29EEA90A21
:1025D000B9F90030B8EEC99AA8EEA80A0CEE103A84
:1025E000B9F9023029EE279A0CEE903AB9F9043085
:1025F000A9EE090A0DEE103A13F0BAFEB8EECCCAF5
:10260000F8EEECCAB8EECDDAB0EE40EA15B35FED05
:10261000277AB4EEE78AF1EE10FA04DD5FED297A4D
:1026200038EE678AF3E75FED2C7AB4EEE78AF1EED5
:1026300010FA04D55FED2F7A38EE278AF3E7B6EE6D
:10264000000A28EE000A08F0D0FC1FED33BA30EE85
:102650000BBA01E01FED36BA1FED37AA5FED37DA8E
:10266000654DF7EE00BABBF1000F53D00FFA88F8B2
:1026700007EE908A33B2B8EEE7FA08EE103A2FEE82
:102680000F0AB8EEC88A3FB207EE907AA8EE080AA1
:10269000F8EEE7EAAEEEAE0AB4EEED0AF1EE10FAAD
:1026A00038DD13F065FE8BEE800AD5ED017A95EDED
:1026B000007A28EE008A2FEE00FA68EE277A6EEE96
:1026C00080EAE7EE0F7A95ED040A95ED027A28EE9E
:1026D000008AE7EE2E7A95ED037AA7EE0F8A95ED44
:1026E000057AA7EE2E8A28EE080AA7EEA70A13F0AD
:1026F0003FFED5ED067A20EE480AB0EE4A8AA7EEF4
:10270000808AD5ED077AA7EE80AAD5ED087AA7EEE4
:1027100080BA01E0B0EE4A8A2CEEAC0AACEE0C0AAC
:10272000ADEE0D0AB4EEED0AF1EE10FA21DD13F074
:102730001FFE8BEE800AD5ED076A95ED087A2DEE27
:1027400000DA6CEE80CA66EECD7A2CEE00CAECEEB2
:10275000877A27EE4C7A38EE278AD5ED067AADEEE9
:10276000277A67EEEC7A3AEE07AAECEE267A3BEE91
:1027700027BADAED017AF5EEC07AF1EE10FA4FF0F1
:1027800000031FDD9FED1D7AB4EEC7EAF1EE10FAEB
:102790001ED567EE886A94ED217AA6EEAA7A67EED6
:1027A0008A6A84ED217A94ED227AA6EEAA7A67EEFF
:1027B0008B7A84ED227A94ED237AA7EEAA7A84EDBF
:1027C000237A05E0C4F88430C4F88830C4F88C302B
:1027D0000B4EDAED027A3378590715D4094B1A6893
:1027E00044F61F639A42F7EE006AB2EE047A88BF9D
:1027F000B0EE667A0AE000BF1C290020C2B8B23EE3
:1028000052170020A0350020B7EE007A27EE877A15
:10281000D4ED217ADFF85083C74AD8ED005ADFF8AB
:102820004CB392ED005AC54F0492E7EE087A97ED4B
:10283000006A9FEDC38A78EEA78AD4ED227AE7EE8C
:102840000A7A79EEA79AD4ED237AE7EE0B7AB1EE05
:10285000467A39EE279AF6EE007A6AEEA77A69EEA2
:10286000A79A29EE279A69EEE56A25EE890A68EEAD
:10287000A78ADBED007AA5EE280AE7EEE86AA7EE64
:10288000290AE7EE096A29EE677A37EE800AA5EE93
:10289000297A67EEA97A75EE266AA6EE287AE5EE21
:1028A000097A8BED000A20EE000A35EE877AA6EE53
:1028B000A60AE5EEE87AA7EE070A76EE277AC2EDD9
:1028C000006AA7EEA70A88ED007AC7ED007A13F038
:1028D0004FFD8BEE800A049AD2ED007AD7ED00BA54
:1028E00067EE807AC2ED007ADBED007A67EE807ADF
:1028F000CBED007AD8ED007A67EE807A2BEE800A75
:10290000C8ED007A87ED000A0FF086FBD5ED080AC6
:1029100095ED070A8B4F13F029FD20EE080A13F0FE
:1029200081FC95ED060A3880B1EE400A13F0C0FC38
:10293000DFED857A37EEC00A20EE080A13F072FC4C
:10294000D5ED000A95ED030A788013F00FFDD4ED64
:10295000247AE0EE487AB0EE670A13F063FC83B2A3
:102960001A0458BFBB80D5ED085A784BD4ED257AB0
:102970001A7895ED010A95ED065AF4EEE75A44BF30
:1029800000F56160B880F1EE10FACCBF42F00802A9
:1029900022F008021A70B9F90030D5ED007A06EE7F
:1029A000103AB9F9023007EE103AB8EEC77AB8EE2D
:1029B000C66AB9F9043027EE000A06EE903AA7EE8F
:1029C000860A9AF80130F8EEE66AD5ED027AA7EEAB
:1029D000A60A012BD5ED077A67EE277AE5EE067A8F
:1029E000E5EEA67AD5ED045A27EE257AD5ED035A01
:1029F000A5EE867A95ED056AA6EE267AF1EE478A6F
:102A000018D133785D070FD4D4F89830402293FB67
:102A1000F2F29B1A07EE103AB8EEC77A37EE277A31
:102A2000BDEEC77A84ED267AD4F89830402293FB25
:102A3000F2F301E0464B1B8894ED278A07EE103A2B
:102A4000B8EEC77A77EEC77A94ED287A3AEE877AAD
:102A500077EEC87ACAEE87AAAAEEA78A84ED278AFB
:102A600013F0E0FBD4F8A450297808F0AFFAD4F8BA
:102A7000A830B0EE680A1844C4F8A80013F0D2FBDE
:102A8000297808F0A3FAD4F8AC30B0EE480A18441C
:102A9000C4F8AC0013F0C6FB697808F097FAD4F8D4
:102AA000B0302C4A18441FEE901A1368C4F8B000D6
:102AB0001944D4F8B43011600133C4F8B43003E0E1
:102AC00000233B807B80BB80234BB3F90610234B54
:102AD000D3F800E0BEF80A2091420FDBB1F5FA6F9F
:102AE0009EF80750BDBF8B1A6B43A2F5FA65C5F17E
:102AF0006405BCBF93FBF5F5643500E06425184B15
:102B0000184AB3F894C193F95E31126804929BB2EB
:102B1000164605930022104B33F91280CCEB0803C4
:102B200003F2F31440F2E63084424FEA42091FD820
:102B3000002BB8BF5B421DE0440100201829002093
:102B40004C3D0F44B8160020DB0FC93FD4160020BF
:102B50000C0000203413002090440020D0160020E8
:102B6000483C00209C160020142900201029002039
:102B70004FF4FA73022A049C4FF064002AD094F8B0
:102B80001D411CB1A342CCBF1B1B0023B64C93FBC1
:102B9000F0F76FF0630B34F817A00BFB073B01371E
:102BA00034F917400FFA8AF7E41BB04F04FB0BF41B
:102BB00094FBF0F4544427F809400EEB0204247906
:102BC0006343AB4C93FBF4F364339BB26B4393FBD3
:102BD000F0F02CE094F81E411CB1A342CCBF1B1BAB
:102BE0000023A44C93FBF0F06FF0630A0AFB003B58
:102BF00004EB400704EB4000B7F9B870B0F9BA0035
:102C0000C01B00FB0BFBBDF814009BFBFAFBC7EBE2
:102C10000B0717FB00F7954887809EF80600002BEE
:102C2000B8BF5B424343924893FBF0F06430747842
:102C3000914B6427444394FBF7F49C5403F1030A3B
:102C4000F47A444394FBF7F40AF802400633747DA7
:102C5000022A00FB04F0854C90FBF7F09854874B58
:102C60000DD1E0459F700DDB854EB6F8962191425F
:102C700014DBB1F5FA6FA8BF4FF4FA610FE0E0453D
:102C80009D5404DA34F809305B4224F809300132EB
:102C9000032A06F101067FF43EAFE5E71146DFF8AF
:102CA00018E2724D891A4FF47A736FF0630059433A
:102CB000C2F5FA626423B1FBF2F191FBF3F23EF844
:102CC000127000FB0211013238B23EF91220121AC2
:102CD000514391FBF3F33B44E3806A4B1B88580656
:102CE0003AD5694BDFED697AB3F904300A2293FBD8
:102CF000F2F3604AB2F8D0209B1A1BB208EE103AE9
:102D0000B8EEC88A28EE278AB0EE480A08F0CEF955
:102D1000F0EE408AB0EE480A08F067F9B5F90230E3
:102D200006EE903AB5F90030F8EEE66A07EE903A12
:102D300020EE667AF8EEE77AA7EEA87A67EE807A58
:102D4000BDEEC77AE6EEA87A17EE103AFDEEE77A06
:102D50002B8017EE903A6B8096F89A31002B51D069
:102D6000444B1A89B3F8D200B0FBF2F0484A451C34
:102D70001278ADB2A3F8D45012B3B3F8D6900023B2
:102D80003C4F34F813C007F1E00E07F1D8083EF8C5
:102D9000132038F813102EF813C0C2EB0C0A11FBE5
:102DA00009F12AB291FBF2F2524428F813200133C0
:102DB000042BE5D1364BA7F8D60000221A7004E0A8
:102DC000B3F8D620013AA3F8D6202A4AB2F8D600A2
:102DD00003B2002B4FF0000312DDB2F9D4502D499D
:102DE00031F81320083112FB00F231F8131092FB76
:102DF000F5F28A1A24F813200133042BEFD101E0F5
:102E0000A2F8D630244BDFF8B4901A78234F12F092
:102E1000040F04D0224B4FF480425A835FE039689C
:102E2000C9075CBF42F001021A701E4A12781207ED
:102E30005EBF1A7822F001021A701B4A11881B4AE1
:102E400019B1D9F800108D0706D41949098819B9A4
:102E500018480088642833D9022111701A7822F0AA
:102E600001021A7032E000BF061F00205427002024
:102E70000CFEFFFFE80C0020AE0D00205C270020B8
:102E8000483C002054160020B816002035FA8E3C2D
:102E900010150020C00D00205217002058160020E9
:102EA000000C0240D416002040140020E41A002038
:102EB0001215002070290020EE1E00205016002060
:102EC0001B78D80756BF0223117013700AF06AFEF0
:102ED000AA4B1B68C01A002801DB06F05DFBA84B5B
:102EE0009B680BB1A7489847A74B1B78ABB1A74B82
:102EF000B3F90620B6F896319A420EDCA44B5B7902
:102F0000012B01D0192B02D196F8E6212AB90E2BFC
:102F100003D0082B1CBF0023A3809E4B04931A6888
:102F200092F824519DB39C4B1B889A072FD09B4B42
:102F3000DFED9B7A93ED080AB4EEE70AF1EE10FAA2
:102F400021D913F0B5F9974BD3ED3A7A20EE270A41
:102F500013F068F9B0F5617FA8BF4FF4617007EE18
:102F6000900AB8EEE70ADFED907A80EE270A08F0C3
:102F70003CF807EE905AF8EEE77A27EE800A13F055
:102F800051F980B200E00020E3881844E080D9F8CD
:102F900000309B0640F1A0807F4B1B8803F030037C
:102FA000002B00F09980814B1B78DD0740F1948065
:102FB0007F4BDFED807AB3F90430DFF82C920A22E0
:102FC00093FBF2F308EE103AB8EEC88A28EE278A8F
:102FD000B0EE480A08F009F8F0EE408AB0EE480A70
:102FE00008F064F8744B754A1B6893F80380B0EEE0
:102FF000409AB2EE048AB8F1000F49D0DFF8ECB184
:10300000B2F90200BBF8025005922BB2C01A08F0C8
:103010000BFFC8F100039842059A03DB4045A8BFA7
:10302000404600E018462844BBF8005005931FFABC
:1030300080FAB2F90000ABF802A02AB2801A08F0B8
:10304000F3FE059B984203DB40450346A8BF434679
:103050001D44ADB2ABF800502DB207EE105A0FFA76
:103060008AF307EE903AB8EEC70AF8EEE77A28EE50
:10307000C07A20EE090AA7EE897AA7EEA80A87EEA1
:10308000087ABDEEC77A17EE103AA9F800301BE0B7
:10309000B2F9023007EE103AB2F9003000EE103A01
:1030A000B8EEC00AB8EEC77A68EEC07A20EE090A18
:1030B000E7EE097AA7EE280AC7EE887AFDEEE77AEE
:1030C00017EE903AA9F8003080EE080AFDEEC07ABB
:1030D00017EE903AA9F80230049BB6F86A211868F6
:1030E000374B0093374B1D68374B196800F1640369
:1030F000A847364B2B491D78354B032D18D9D1F8ED
:10310000EC20B2F802E0BEF5FA7F11D2B4F9046007
:10311000B3F904C0002EB8BF7642CEF10000821B86
:10312000944504DB0EEB06026245A8BF62469A8016
:103130003F68DFF8BCE0274E17F0006F06D1264A43
:10314000106841F21D020240002A53D0234AD1F8F0
:10315000ECA092ED004A224A9EED005AD2ED003AD0
:10316000B3F800E0B3F802C0B3F90480D6ED004A2A
:103170001C4A00210B4608460CE100BFE81A00205B
:10318000C04600205E17002004000020904400206C
:10319000483C00209C160020541600201C290020CA
:1031A0008FC2753CE80C0020EFB6B044D416002066
:1031B000B816002035FA8E3C881400200C1500202B
:1031C000CE3D002008000020D0160020EC27002073
:1031D00090270020F04600208C440020FC46002070
:1031E000F8460020D80D00204029002008150020B6
:1031F000F44600209EED005ADFF83CE3C3489EED04
:10320000004ADFF838E30270D6ED004ADEED003AFE
:10321000D1F8EC90E0881E88B3F802E0B3F904C05E
:10322000BB49AA4280F03F8199F90030DFF8F08273
:103230005B420CFB03F317F0805F07EE903A32D04D
:103240000FFA8EF306EE103AF8EEE76AF7EE007A20
:1032500037EEE37A03B2B8EEC66A05EE903A33B2BF
:1032600027EE066A37EEE47A07EE903AF8EEE77A50
:103270009FEDA83A67EE277A91ED007AE5EE037AA2
:10328000F8EEE55A67EE877A11ED017AA4EE036A4B
:10329000E5EE877A91ED017AE6EE077A91ED027A12
:1032A000E6EE877A23E033B206EE903A03B206EEFA
:1032B000103A0FFA8EF307EE103AD1ED015AB8EE3C
:1032C000C77AB8EEC66A27EE257A51ED015AA6EE06
:1032D000257AF8EEE66A91ED006AA6EE867AF8EEB7
:1032E000E77AD1ED026AA7EEA67AF0EE477AFDEE14
:1032F000E77A103117EE903A28F81230013290E751
:103300009AF90060764208FB06F617F0805F0DF12F
:103310001C0907EE906A40D00FFA8EF606EE106A8E
:10332000F8EEE76AF7EE007A37EEE47AB8EEC66AAE
:103330000FFA8CF627EE066A37EEE37A07EE906A0C
:10334000F8EEE77ADFED735A67EE277AA5EE256A85
:10335000E4EE257A92ED027A67EE877A92ED017AB1
:10336000E6EE077A92ED037AE6EE877A0FFA83FBB0
:10337000FDEEE77A17EE906A29F8106007AE36F88E
:1033800010600FFA86F9D94524DD33460E46013028
:1033900010323146A842B3D322E00FFA8CF606EE83
:1033A000906A0FFA8EF607EE106A92ED016AB8EE97
:1033B000C77AF8EEE66A27EE067A92ED026AA6EE82
:1033C000867AF8EEE77AD2ED036AA7EEA67AF0EEF7
:1033D000477ACBE70FFA81FBD945D8DB1E46D4E705
:1033E0004D4A4A481268578816885B1AB91B89B239
:1033F0000AB21BB293424FF0000214DD4FF0010EEF
:1034000080F800E0AA420BD20DF11C0E3EF812002B
:1034100010FB01F090FBF3F02EF812000132F1E7FF
:10342000B6B2BBB207E00270022193FBF1F3F218CF
:10343000FB1A96B29BB2E7880021A94233D207AAB1
:10344000364832F9112007EE902A3AB206EE902A59
:1034500000EB0110B8EEE77AF8EEE66AD0ED007AFC
:1034600032B266EEA76A07EE902AF8EEE77AF4EE3B
:10347000E76AF1EE10FA0BD41AB207EE902AF8EED2
:10348000E77AF4EEE76AF1EE10FAD8BFF0EE667A6A
:1034900077EE277A2248FDEEE77A17EE902A20F899
:1034A00011200131C9E71F4B1F4F1A7802F00402A7
:1034B00002F0FF030AB93A7873E01C4B1C4DDB782D
:1034C00004931C4B186810F0006039D12A6841F24F
:1034D0001D031340BBB9124A97F800E0138801217D
:1034E00071451EB207D232F91130B342B8BF33462C
:1034F0009BB20131F4E7084A1268528896421FDDF8
:103500009A1A92B21DE002461BE000BF4429002037
:10351000DC0D002000007A4494280020D80D002003
:10352000A016002052170020EC270020C01A00200F
:103530008C44002058160020FC460020F84600204D
:1035400000229B492B68B1F906509A4997F800B0C0
:10355000D1F8B0E1984941F21D0C03EA0C0C03F4D8
:1035600080580E68954903F010030593944B096841
:1035700003EB4B0B5B450BD0002840F07D84BCF186
:10358000000F40F054841F88BF1A1F8000F04FBC0A
:10359000884D95F8B431013BDBB2182B00F2448121
:1035A00009E09342F4D2874931F81300844921F8A5
:1035B00013000133F5E701229A40834B1340002B9F
:1035C00000F03281814B7A491B8813F4807F07D049
:1035D0002388ADF81C306388ADF81E30A38815E051
:1035E0007B4B1A88ADF81C205A88ADF81E20794A0A
:1035F0009B881268ADF82030D00409D5D5F8B021E9
:10360000B1F90600D289904202DA5B42ADF820306F
:10361000714CB4F902304FF47A7203F5E16353430D
:103620004FF4616093FBF0F3A3F5FA73ADF8343017
:10363000B4F9003003F5E1635A43614B92FBF0F2B9
:103640001B88A3F2DC53ADF822305A4BA2F5FA7274
:10365000D3F8B031ADF83620DB890A88D21AADF83C
:1036600024204A88D21AADF826208A88D21AADF8CA
:103670002820CA88D21AADF82A200A89D21AADF8B1
:103680002C204A89D21AADF82E208A89D21AADF898
:103690003020CA89D31AADF8323000234F4A0021B6
:1036A00022F813100133082BF8D14D4A4D4B126804
:1036B00004924D4A1B7812684C4905924C4E0722E1
:1036C00002FB031B594500F095800B7833B103F1E1
:1036D000150201239340049A134065D011F806CCDB
:1036E000059B11F805AC11F8034C11F8018CCCEBDB
:1036F000CC0E03EB4E0E6420BEF90020BEF9023062
:103700009B1A9BB211F9022C4FEA53095A434FEA14
:103710004A0792FBF0F20EA8C9EB020292B20744EC
:1037200014B937F81C0C0CE0B6F9000037F91C7C12
:10373000B84208DA0444844203DBA7423846A8BFF3
:103740002046308008E007DD041BBC4203DB8442D6
:10375000A8BF044627463780DEF80A4011F9047CEA
:10376000012000FA0AF02042308812B217FB00F064
:1037700014BF4FF0FF340124642790FBF7F0904210
:103780000ADB4FFA88F25A4392FBF7F2C9EB0202C6
:1037900012B28242A8BF0246104B33F81C9002FBC3
:1037A000049423F81C4000E033800236073189E797
:1037B00090440020E80C002090280020942800204D
:1037C000A01600204A2900209920980154160020B4
:1037D000902700208C440020B81600208A16002074
:1037E0005816002098280020582600209F280020E6
:1037F0009E0E0020A34BA44FD3F8008000260E227B
:1038000002FB068237F8023F92F90640F0B214FB41
:1038100003F3642493FBF4F43C800EF0E3FB0136E5
:103820002044082E3880EAD1984B994E1A68954F5B
:1038300012F0200F984632D000200EF0D3FB3080DB
:10384000044601200EF0CEFB924B70801B681906D7
:1038500025D5914B914AD3F8D8311B78012B22D131
:103860003968138891F914E0B2F902201EFB03F3C2
:103870004FF0320C93FBFCF31FFA83FE91F90630F4
:103880005B4253436FF0310193FBF1F10EEB010208
:10389000A11893FBFCF37344318018447080D7F86F
:1038A00000E0002318E0D7F800E053889EF90610E6
:1038B00011FB03F1322391FBF3F121443180118894
:1038C0009EF9142012FB01F292FBF3F21044E5E79B
:1038D0000133082B325311D00E2101FB03E136F9DD
:1038E0001300B1F90020B1F9021090424FEA4304ED
:1038F000EEDB0AB28242A8BF0246E9E7664CD4F882
:10390000ECA09AF90830A3B994F8B49109F1FF3307
:10391000182B72D8DFE803F03571714F717171485F
:1039200071717171715971717171714F65717159E5
:103930003500DFF854B14FF00009594B3BF9021F35
:10394000BAF90620882000FB09300EF075F93A68B4
:103950000E2380B203FB0922ABF80000B2F900305D
:10396000B2F9022000B2984203DB13B28342A8BF2F
:10397000034609F10109B9F1080FABF80030DCD1B9
:10398000C2E79AF8043013B10020718908E0454B72
:103990001B7803F0040303F0FF00002BF4D1014671
:1039A00009F086FA012729E00020F18809F080FA61
:1039B0000120318905E00020318909F079FA718907
:1039C000012009F075FA022718E00227B81E36F820
:1039D0001710C0B2013709F06BFA082FF6D106278D
:1039E0000CE00327F81E36F81710C0B2013709F0B3
:1039F0005FFA072FF6D1042700E00027D8F800303F
:103A00009A0602D4B9F1050F0AD13846318809F077
:103A10004FFA781CC0B2718809F04AFA0237FFB237
:103A2000D8F800309B0205D494F820367BB10EF014
:103A30001BFA0CE0DFF878900026B819C0B239F80C
:103A4000021F09F035FA0D2EEED00136F5E7164BC0
:103A50001878002840F03482D8F800301E0340F176
:103A60002F8295F82136023B052B39D80F4B93F85E
:103A7000F837FBB1012B23D108F0D8FCC0F17F004F
:103A80001EE000BF58260020881600208C4400202D
:103A90008A16002058160020E80C0020B8160020D6
:103AA000C80E0020521700205C260020483C002051
:103AB00096440020B04BD3F8240603689B689847CF
:103AC000D5F8283695F82C261344B3F5807FA8BF87
:103AD0004FF480738342D4BFC5F82836C5F8280652
:103AE00094F82136023B082B00F28F81DFE813F0B7
:103AF00009003F00620078009300A500180136011C
:103B00007C019E4B1A68D4F8343664339A4240F2F2
:103B10007C8140200DF08AFC002840F0768140270F
:103B2000974BD4F83026944E985C1D4670B106F041
:103B300063FAD6F82836013BC6F82836D6F8303670
:103B4000013F03F10103C6F83036E9D1D4F830263D
:103B5000894BAA5C002A40F05881C3F830264FF008
:103B6000FF32C3F83426032283F821264DE12423B3
:103B70000093844B019303F10C0202924920A3F1BC
:103B80000A025021023306F0E5FD002840F03D8195
:103B9000D8F8003013F080034FF0FF3205D0C5F89D
:103BA0003006C5F83426042332E0C5F83036C5F8AF
:103BB00034262CE0744A02230021009301910291E3
:103BC000482002F1080306F0C5FD002840F01D81E1
:103BD0004FF0FF33C5F83436C5F83006052317E03B
:103BE00007230093694B019303F10C0202924720D3
:103BF000A3F108020021043306F0ACFD002840F0D8
:103C000004814FF0FF33C5F83006C5F8343606237B
:103C100085F82136F9E05E4A0523002100930191E1
:103C20000291532002F1080306F094FD002840F0B1
:103C3000EC80C4F830060723E0E040200DF0F6FBEE
:103C4000002840F0E280D4F830360C2B00F2E580FA
:103C5000DFE803F0070B0E1219252A2F33374550E2
:103C600054004C480DF064FD54E04B484B4913E0C0
:103C70004B484C494C4A4BE04C4B4D4893F8F61797
:103C800093F8F72744E0494B4A4893F8D0270C2192
:103C900001FB023393F8D2170DF04AFD3AE0434B93
:103CA0004548B3F84011F7E7404B4448B3F8421198
:103CB000F2E7434B43481969EEE7434B4348198801
:103CC000EAE7D4F83836D80404D5384B404893F89E
:103CD0007811E1E7284B0B22C3F830261AE0334B6A
:103CE0003C4893F87C1193F87D2193F87B310DF0DB
:103CF0001FFD0FE03848B4F83C16CDE7D8F8003087
:103D0000190507D5294B3548B3F88011B3F97E2141
:103D10000DF00EFDD4F830360133C4F8303674E0BF
:103D20002F4B1B689A0116D5B4F84036124D93B943
:103D3000D5F8443607932B4B0E201B68089307A930
:103D400006F044FA4FF48053A5F83E36092385F86F
:103D5000213606F093FA06F01BFA56E094F848363E
:103D6000002BF6D01E4B1B689B01F2D4024B08229D
:103D700083F82126EFE700BFE80C0020A0350020E3
:103D8000A86C0108126D0108B86E0108D06E010818
:103D90001C6F0108446F01085E6F0108736F010812
:103DA0007B6F01088F6F01089B6F0108483C002062
:103DB000A46F0108B56F0108BF6F0108CE6F01083D
:103DC000C0460020DD6F01080C000020ED6F0108E7
:103DD000F76F0108047001081D70010828700108C0
:103DE00058160020A8480020384B1A68D4F83436FA
:103DF000C8339A4205D90DF05FFB012384F82136C0
:103E000003E00DF073FB0028F5D10DF03FFB002817
:103E100056D0012384F8213652E00DF067FB0028CC
:103E2000F3D04FF48053A4F83E360923E6E7B8F107
:103E3000000F24D0BEF80E90F788C7EB090A55454D
:103E400002DD4F44BD4212DBBEF80E70B3F90090A4
:103E5000BD42CBBF77888F88B1F802A0B6F800A02A
:103E6000B94529DBD1454F46A8BF574624E04D450B
:103E7000CCBF778837881FE0B8F1000FE4D1049FEA
:103E8000B1F80290B3F900A03FB18F88BA4513DBB7
:103E9000CA455746A8BF4F460EE00F88BA4503DB18
:103EA000CA455746A8BF4F461F80BEF81070BD4296
:103EB00003DA059F0FB18F881F800233FFF75ABBCB
:103EC0000FB0BDEC108BBDE8F08F00BFA035002017
:103ED0002DE9F04FA249A34C0A6802F59C432DED51
:103EE000028B20332360A04B87B01E780091C6B1AF
:103EF0009E4909688A4240F20481013E1E7000E139
:103F0000D9F800309A48072D98BF595D994B88BF62
:103F100029461B689847032D0CD904EB450501364B
:103F2000A880934BDFF874921A78F5B2AA4218462B
:103F3000E6D820E0D9F8002005F10E0302EB830358
:103F4000D9881A890028E8D04FF47A73401A584368
:103F5000531A90FBF3F040F6C90300F57A709842CB
:103F600005DC40F2EE239842B8BF184601E040F667
:103F7000CA0080B2D1E7804B804A1B6842F2010838
:103F800003EA08087E4BB8FA88F84FEA58181B680D
:103F9000B8F1000F05D194F82810117079494D78C7
:103FA0000D7017781FB1774A177887F0010794F8DA
:103FB0002AB090F800A00F220326BBFBF6F606EB12
:103FC000460684F82920C6EB0B06D9F80020DFF856
:103FD000D491F6B20025554559DA4FEA450C1FB188
:103FE000694931F8150000E03846D18ADFF8B8E1B8
:103FF000814202D8118B81421ED25EF825005949B8
:10400000834203D2614931F80C0019E0E8B2029210
:104010000193039105F06AFA032D019B029A0FDCCC
:1040200003994FF0010C91F829E00CFA05FC2EEAF7
:104030000C0E81F829E003E003F596714EF8251087
:10404000B8F1000F1CD194F8BC1029F8160031B952
:10405000BBF1020F14D94349012081F8BC00B9F823
:104060000210B9F800000844B9F80410084448499F
:1040700080B221F8150000B2032190FBF1F080B26C
:10408000424909F1060921F815000135A3E794F822
:1040900029203B493F4BA2F10F0EDEF1000242EB1B
:1040A0000E0284F8D6206AB13B4A1268570109D43F
:1040B0000A68D9689A60521AC82A1DD9012283F861
:1040C000212019E02F4A0120507010700A68996869
:1040D000DA605B68521A9A4282BF2E4B002283F844
:1040E00021200025554507DAE8B205F0FFF9274BF6
:1040F00023F815000135F5E794F82A30013384F8E8
:104100002A301D4B1A6812F4805F984605D0224B66
:104110001B68DE0701D410F0EDFC009B19681F4BF3
:104120001F68BB7A002B41D0013B18483A7B30F81E
:1041300013301AB1C3F53B6308339BB21BB2A3F52E
:104140007A73B3F57A7FA8BF4FF47A7323EAE373E7
:1041500007EE903A9FED127AF8EEE77A5FE000BF43
:10416000A848002038130020BC1A0020B81A0020EC
:1041700050440020600300208C440020C01D00201B
:10418000A0350020020000203C13002090440020B5
:10419000F6130020C01A002058160020B41A002080
:1041A00000007A4464130020AC130020D8F80020EB
:1041B000150440D5D4F8D800934E081A00283ADBED
:1041C000924A01F59C402030C6F8D8005079904AB8
:1041D00032F81050A8B2FD7A90FBF5F596F8DC00A5
:1041E000013000F00F0286F8DC20324482F8DD5006
:1041F0001A468848185C01330244102B92B2F8D159
:1042000012B292FBF3F31BB2642BA8BF642323EA20
:10421000E37307EE903A9FED807AF8EEE77AC7EE07
:10422000877A7E4A9FED7E7A67EE877AFCEEE77AA0
:1042300017EE903A1380D8F800307A4D13F4807F4F
:1042400000F00981784BDFF8E491994205D999F89B
:10425000022012B9012289F8022099F80220002ACE
:1042600000F0F980714A2F7892F82160704A701E30
:10427000464211684641002EC1F38063C7F38007B0
:104280000093924614BF4FF0000B4FF0030B99F8C8
:104290002020052A00F2D980DFE802F0034D527594
:1042A00084A1002F3AD0D4F8F000B4F8F41009F04B
:1042B00034FC012809D15F495F4A09681268C9883E
:1042C000642000FB0122C9F81020009B6BB1594A01
:1042D000126812794AB110F039FA032289F82020C5
:1042E0004FF47A72C9F81C20D1E7002E40F0AD805F
:1042F000514AD9F8101010684C4A88420AD90192E4
:1043000010F024FA019A032182F8201040F6B83107
:10431000D161BCE7012182F82010B8E7009B4FF47F
:10432000806013B106F0DAFE01E006F0C7FE00225D
:10433000C9F8102089E0002E46D110F007FAA6E750
:1043400026B1052289F82020012000E0304667B11F
:10435000D4F8F020D189394A1180518091803549B3
:1043600009684988D1804FF0020B334A1168D9F8A7
:104370001420914201D8002F64D147F23052C9F87D
:104380001C20032221E02A7842F002022A7010F059
:10439000B1FB294AD9F81C1012680A44C9F8182040
:1043A000042212E0244A9EB11168D9F818209142E3
:1043B0004BD9234A92781AB9DAF80020D10744D4AD
:1043C0002A7822F002022A70052289F820205EE76E
:1043D0001268D9F81C100A44C9F8182035E01549AC
:1043E000154A09681268C988642000FB0122C9F8CF
:1043F00010204FF48060002289F8202089F80320E3
:1044000006F05CFE43E700BF38130020081A0020C6
:10441000181A0020151400200000C842C4160020FD
:1044200000C07F4452170020404B4C00C01A0020AF
:104430005816002000470020A0350020904400209E
:104440000200002000287FF422AFBBF1000F02D051
:10445000584609F015FCA54E06F5C370B6F84E1186
:1044600009F05BFB814600282ED1A14BA14F1B68B0
:1044700013F0006A08D0FB7833B90EF04BFD9E4B69
:10448000012818BF002018702B785A0709D5D8F8D2
:104490000030DB0605D4BAF1000F02D0FB78002B08
:1044A0002FD0964A0023136053609360944A0021F2
:1044B000116051609160934A126802F57A72C4F8F3
:1044C000F8200122FA701AE0D8F80030DF0618D47C
:1044D0002B78580715D5864B1B68190111D5854FC8
:1044E000FB7863B1874B1A68D4F8F8309A4208D940
:1044F0000EF010FD28B9804BF870187001E07E4A6C
:1045000013702B785A0736D5D8F80030DB0632D531
:104510007D4B1B78DF062ED4764B9B7893B196F8B3
:10452000E031B9F1000F15D17BB1764B1A68D4F8A0
:10453000FC309B1A002B08DA10F0DCFA734B83F87E
:10454000009118E0B9F1000F0DD1102009F098FB8F
:1045500001230EE03BB16B4A12684FF47A7101FB04
:104560000323C4F8FC3094F8003123B109F070FB48
:10457000002384F80031002296F8DEB196F8DF11AE
:10458000B6F896E1B6F898C113466148009030F944
:1045900012709B087745C4BF63F07F03DBB2013222
:1045A0006745B8BF43F04003042AEED194F80121D7
:1045B00056489A4205D190F80221F92A04D80132CE
:1045C00000E0002280F802214A4884F80131837813
:1045D0004E4A474F82462BBB3868C0070AD582F83F
:1045E0000331B9F1000F1DD12B78DB071AD510F07C
:1045F000CDF817E02B78580714D5464B1B788BB1B4
:10460000454BDB7873B992F803310133DBB2032BEE
:1046100082F8033106D911B110F06CFA02E0B9F159
:10462000000FF9D094F80231384ADFF8F490142BD7
:1046300040F0A0809AF802301BF1000B18BF4FF039
:10464000010B6BB392F801315F2B11D12B7803F082
:10465000040303F0FF0113B110F04CFA08E00B2043
:104660000291019209F00CFB019A029982F8021161
:10467000BBF1000F14D094F801317D2B10D12B78B1
:1046800003F0040303F0FF0213B110F033FA07E064
:104690000B20019209F0F4FA1C4B019A83F80221D5
:1046A0002B7803F0040303F0FF01002B62D194F890
:1046B0000131164A572B0AD1184B4FF47A721A80DF
:1046C000D8F800301B0655D507F06CFC52E0D8F83E
:1046D0000000400733D55A2B31D192F804310BB387
:1046E000012382F8041182F8053143E0483C0020A0
:1046F00058160020020000204529002078270020BD
:104700009C460020A0350020D4160020381300203D
:1047100090440020C01D0020C01A00201215002067
:104720009C16002092F8063183F0010382F80631CE
:104730000BB10C2000E00D2009F0A2FA1AE05D2B6D
:1047400000F0B4845B2B00F0B3845E2B02D1032015
:1047500000F0AFBC562B01D106F08AFF9AF8023068
:10476000002B00F0BB8494F801316F2B40F0B08433
:1047700010F00CF8D8F800305A0736D594F8063106
:10478000B84A93B12B785B070FD5009BB3F906109D
:10479000B6F89631994208DD3B6813F0010302BF79
:1047A0003221A2F80A1182F806313B68D8030DD5F0
:1047B00094F80C21AB4B2AB993F8042112B9322298
:1047C000A3F80A21012384F80C310EE094F8043197
:1047D000A44A53B12B7803F0040303F0FF0123B97B
:1047E000012382F8041182F80531D9F800A00023D2
:1047F0003B600AF187090AF1D70B99F8002099F874
:10480000013019F8010C9A420BD2494609F04EF9D1
:1048100038B119F8022C012303FA02F23B68134362
:104820003B6009F10409D945E7D18F4B1B785BB197
:104830008E4BDFF854B21A68DFF850A212F0020F64
:10484000994640F03B8332E30AF1D6070AF58F79A7
:104850003A787B7817F8010C9A4225D2394609F04C
:1048600025F908B3BB7897F804C0814A97F803A0EC
:104870007C480C21013B01FB0C4103EB4303134437
:10488000D1F814219A420FD0C1F81431002390F8C6
:104890004021C1F81831012303FA0CF322EA030383
:1048A00081F810A180F8403106374F45D0D1714BC7
:1048B0001F68714B1B680293704B1B780393704BFE
:1048C000019300230093019B1A68002A00F0E48200
:1048D00092F800A0BAF1000F00F0DE825B68029946
:1048E000CB1A002B0CDB01F5FA7301994B60009990
:1048F00001238B4094F8401121EA030384F84031EE
:10490000039B002B00F0C882019B517813F8043CF4
:104910000433DBB2002940F07E825A4931F913108A
:10492000B6F8943103F1C800814202DD92F802B07A
:1049300015E0C83B994203DA9178C1F1000B0EE013
:10494000009A0123934094F8402122EA030384F85B
:104950004031029B019A03F5FA7353609CE294F88C
:104960004031009A1341D90700F19682BBF1000F44
:10497000CCBF0220012009F0BDF90AF1FF33DFF8B6
:10498000E490132B00F28082DFE813F0140025007E
:1049900037004B0064008800EB004E01B501E301D5
:1049A00013027E024B005A008800EB004E01BD004E
:1049B0002001850197F80090D944B9F1FA0FA8BFFA
:1049C0004FF0FA0929EAE979384687F8009009F0AA
:1049D00057F801200FE097F80190D944B9F1640F1E
:1049E000A8BF4FF0640929EAE979384687F80190B1
:1049F00009F046F802204946D8E197F803A0DA44C6
:104A0000BAF1640FA8BF4FF0640A2AEAEA7A87F87D
:104A100003A03846D9F8441108F0E8FF03205146B6
:104A2000C4E1797959446429A8BF642121EAE1717C
:104A300079710D2009F0A2F8BAF10D0F00F024826F
:104A4000397959446429A8BF642121EAE171397197
:104A50000E20ABE1B979594481F30801B971052001
:104A6000A4E100BF381300205C2600205816002067
:104A70002D710108D0160020A0350020C01D002097
:104A80004C140020904400205016002054160020A2
:104A900000007A440000C84200000000D9F8483104
:104AA0001A78022A20D107EE90BAB8EEE70A5FED35
:104AB000077A93ED097A80EE270A30EE070AB5EE01
:104AC000C00AF1EE10FA07D4B4EE670AF1EE10FA5C
:104AD000C8BFB0EE670A01E01FED110A83ED090AB5
:104AE0000F2009F035F80AE099785944C829A8BF81
:104AF000C82121EAE17199700F2009F03FF8BAF15D
:104B00000F0F00F0C181D9F848311A78022A1ED15E
:104B100007EE90BAB8EEE78A5FED227A93ED080AC5
:104B200088EE278A38EE000AB5EEC00AF1EE10FAD8
:104B300007D4B4EE670AF1EE10FAC8BFB0EE670A08
:104B400001E01FED2B0A83ED080A122056E1597887
:104B50005944C829A8BFC82121EAE171597012201F
:104B600024E1D9F848311A78022A20D107EE90BA08
:104B7000B8EEE70A5FED397A93ED0C7A80EE270AFA
:104B800030EE070AB5EEC00AF1EE10FA07D4B4EE23
:104B9000670AF1EE10FAC8BFB0EE670A01E01FED38
:104BA000420A83ED0C0A102008F0D2FF0AE0197BBC
:104BB0005944C829A8BFC82121EAE17119731020FE
:104BC00008F0DCFFBAF1100F00F05E81D9F848312F
:104BD0001A78022A1ED107EE90BAB8EEE78A5FED86
:104BE000537A93ED0B0A88EE278A38EE000AB5EE69
:104BF000C00AF1EE10FA07D4B4EE670AF1EE10FA2B
:104C0000C8BFB0EE670A01E01FED5D0A83ED0B0A35
:104C10001320F3E0D97A5944C829A8BFC82121EA52
:104C2000E171D9721320C1E0D9F848311A78022A0B
:104C300022D107EE90BA1FED6A0AF8EEE77A87EE06
:104C4000800AD3ED0F7A30EE270AB5EEC00AF1EEF6
:104C500010FA09D45FED717AB4EE670AF1EE10FA3A
:104C6000C8BFB0EE670A01E01FED750A83ED0F0AB9
:104C7000112008F06DFF0AE0997D5944C829A8BFAA
:104C8000C82121EAE1719975112008F077FFBAF186
:104C9000110F00F0F980D9F848311A78022A20D192
:104CA00007EE90BA1FED860AB8EEE78A88EE008A12
:104CB00093ED0E0A38EE000AB5EEC00AF1EE10FAD6
:104CC00009D45FED8C7AB4EE670AF1EE10FAC8BF32
:104CD000B0EE670A01E01FED900A83ED0E0A142082
:104CE0008CE0597D5944C829A8BFC82121EAE17147
:104CF000597514205AE0D9F848311A78022A1ED181
:104D000007EE90BAB8EEE78A5FED9E7A93ED0A0A55
:104D100088EE278A38EE000AB5EEC00AF1EE10FAE6
:104D200007D4B4EE670AF1EE10FAC8BFB0EE670A16
:104D300001E01FEDA70A83ED0A0A09205EE0D97899
:104D40005944C829A8BFC82121EAE171D9700920B6
:104D50002CE0D9F848311A78022A1ED107EE90BA11
:104D6000B8EEE78A5FEDB57A93ED0D0A88EE278AF3
:104D700038EE000AB5EEC00AF1EE10FA07D4B4EE30
:104D8000670AF1EE10FAC8BFB0EE670A01E01FED46
:104D9000BE0A83ED0D0A0A2030E0597B5944C82928
:104DA000A8BFC82121EAE17159730A2008F0E6FE84
:104DB0006AE0D9F848311A78022A22D107EE90BA6F
:104DC0001FEDCD0AB8EEE78A88EE008A93ED100A4F
:104DD00038EE000AB5EEC00AF1EE10FA09D45FED24
:104DE000D37AB4EE670AF1EE10FAC8BFB0EE670AE4
:104DF00001E01FEDD70A83ED100A0B2008F0A8FE92
:104E000042E0D97D5944C829A8BFC82121EAE171EF
:104E1000D9750B20CAE7012936D19078C04A32F9FA
:104E20001390B9F5617F05DB40F633039945A8BFC0
:104E3000994601E04FF46179BAF10C0F24D1B94AD7
:104E40004FF4966393FBF0F01378A9F5617999FB21
:104E5000F0F95FFA89F94B4516D0B9F1040F34BF68
:104E60004B4602231370B04A0AFB036303F2D2736A
:104E7000136006F019FA5046494608F07FFE09F122
:104E80000100C0B208F036FF009A0123934094F865
:104E90004021134384F84031009B01330093019B70
:104EA0000C330193009B042B7FF40DADC0E4D8F8C4
:104EB0000030DA050FD59D4BDB7863B1DBF80030AD
:104EC0009B0708D5BAF8003013F0010708D101207C
:104ED00006F004F904E0012006F0F0F8012300E0F8
:104EE0000023D9F8002057070BD553B1012006F055
:104EF000E5F8BAF80030980706D4022006F0EEF87C
:104F000002E0022006F0DAF8BAF80070884B17F0D9
:104F1000030F4FF4004214BF5A831A83DBF80030AA
:104F2000990609D4D9F800301A0540F18D804FF464
:104F3000807006F0D3F88BE07E4B1B789B074ED534
:104F40007D4B1B78042B4AD9D9F8003013F4007B31
:104F500007F010070CD0B7BB102006F0BFF82020D8
:104F600006F0ACF87548011D06F070FF022326E03C
:104F7000BFB22FB1102006F0A1F8012784F84CB180
:104F8000D9F80030580512D5D4F850316C495A89F7
:104F9000B1F90030002BB8BF5B42934207DAB1F998
:104FA0000230002BB8BF5B429342C0F2FC80BAF8DB
:104FB0000030990608D5202006F080F8002384F8F8
:104FC0004C31012700E0002794F85431A3B90E209A
:104FD00008F056FE5B4B012283F854210CE017F0D9
:104FE000300F9FD0102006F069F8202006F066F8F8
:104FF000002384F84C3101E0002F93D0524B002065
:1050000003F1280E03F15007504A002122F8101036
:105010004F4A596022F810100432CEF8041022F8DA
:10502000101000221A609A60CEF80020CEF80820F6
:105030003A607960BA6014330EF1140E1437002808
:105040007FF470AF0120DFE74FF4807006F036F890
:105050007379082B01D00E2B02D1402006F02EF8D8
:10506000D8F800305A0519D596F814321BB92B78A8
:1050700013F0040F03E0D9F8003013F4002F09D027
:10508000344B00221A703C200DF010FF30B10DF0AF
:1050900049F9F8E709F004FA0DF029FE012384F834
:1050A000D83107B0BDEC028BBDE8F08F012000E0E5
:1050B00002205FFA80FA0AF1FF3386F8D03706F053
:1050C0005DF806F015F9504608F014FEFFF752BBE4
:1050D000BBF1000F02D07E2B3FF44AAB94F80131B4
:1050E000972B06D1174B4FF4C872A3F80821FFF78E
:1050F00041BBA72B06D10F4A137843F0040313706A
:10510000FFF738BB0022BB2B059201D1022303E03D
:10511000B72B21D14FF6FE73ADF8163027E000BF54
:105120009044002048290020D0160020C01A0020FA
:10513000000C0240D4160020D5160020EC160020EA
:10514000542700203813002090140020402900200C
:105150000815002055440020BE2B01D1022304E095
:10516000BD2B7FF407AB4FF6FE73ADF81430D9F8C2
:105170000030BDF81410B3F864200A44A3F864208A
:10518000BDF81610B3F866200A44A3F8662005F0AF
:10519000F5FF06F0ADF8012008F0ACFD002384F81F
:1051A0000231FFF7E7BABAF800309B063FF50CAFC3
:1051B000202005F093FF0748074B011D1A685B6824
:1051C0004360026006F042FE044B012783F84C71F5
:1051D000FAE600BFF4160020D8160020381300208D
:1051E0008F4A1368988A80B2C1B270B5CE072ED5A7
:1051F000198821F400610904090C1980198889B201
:1052000041F48061198000211171517999B191792E
:1052100011B9D179FF290ED101219171117A022999
:1052200001BF198889B241F400611980517A41F0B7
:1052300001011982DFE0517A01F0FE011982D37970
:10524000FF2B00F0D880764BFF211971D3E08D073A
:105250003AD5BFF35F8F107AC0B2012813D15179CC
:1052600089B1917979B1198821F480610904090C17
:105270001980BFF35F8F198B1988907289B241F43E
:10528000007119801BE0198BBFF35F8F107A64499E
:1052900002280AD1487940B1897931B1198821F4BD
:1052A00080610904090C19809FE0107A5C49032889
:1052B00005D1487918B18979002940F096809988FC
:1052C00089B241F4806195E04C0754D50121917277
:1052D0005179002936D09179002933D0117A188874
:1052E000022911791CD920F480600004000C188078
:1052F0001C8AD568C8B249B2E4B26C54198889B224
:1053000041F400711980811C11710130198A40B279
:10531000C9B22954998889B241F48061998026E004
:1053200080B240F4007018801C8AD568C8B249B2B7
:10533000E4B26C54411C1C8A49B2E4B203306C5490
:10534000107114E09179364809B9017C41B119888E
:1053500089B241F40071198011790131117106E0AF
:10536000198889B241F480711980012181711988ED
:10537000C905FCD43FE001F0400101F0FF04E1B1B8
:1053800010791E8AD568C4B240B2F6B22E54611CA0
:10539000C9B2157A117149B2C81C854201BF9888FB
:1053A00020F480600004000C08BF9880137A8B42C0
:1053B00021D11B4B02341C711DE006061BD511794F
:1053C00048B2451C0AD05469205C18820131C9B228
:1053D000107A117149B288420DD106E0D179198253
:1053E0005179147109B9117A29B9998821F4806128
:1053F0000904090C9980117A92F90400084B0131D3
:1054000088420CD100219971997A31B119688B8841
:1054100023F440731B041B0C8B800023137670BD98
:1054200014150020054B5A7E02F0FF0122B1012223
:10543000027000225A7670470170704714150020E0
:1054400073B51A498D7E0446EDB9194B06215E6885
:1054500018786A46B04730B39DF800209DF80130B7
:1054600043EA022323809DF802209DF8033043EA9B
:10547000022363809DF804209DF8053043EA02234F
:10548000A38001250FE0CB6908201A1D4B6A92FB0F
:10549000F0F222800A6A0433043293FBF0F392FBA9
:1054A000F0F2A3806280284602B070BD141500207F
:1054B0004C09002013B5044672B6104B06215B68F8
:1054C0006A463B20984762B6A8B19DF800209DF837
:1054D000013043EA022323809DF802209DF8033027
:1054E00043EA022363809DF804209DF8053043EAD7
:1054F0000223A380012002B010BD00BF4C09002090
:105500002C4BF7B55A69520551D52B4C4FF480629C
:105510005A61E36D0133E365284B06215D68187815
:105520006A46A8472346002839D09E6ADC69186A73
:105530009DF801105F6A03EB4605B5F92CC0B5F97B
:105540003CE0B5F94C20CCEB040C9DF80040CEEBD0
:10555000000E41EA04249DF802009DF80310AC857A
:1055600041EA0020BF1A9DF805109DF80420A88785
:1055700041EA0222A5F84C2007FA82F25A62721C14
:10558000072AC8BF00220CFA84F40EFA80F0C4BFC8
:105590009A620122DC611862D4BF9A629A76DB6D4E
:1055A000054A012B03DD0023D3650123537603B0A5
:1055B000F0BD00BF003C0140141500204C09002044
:1055C000F0B5454D95F8603085B0002B40F08280F5
:1055D000424B1B68002B7DD01A681AB14049086BFA
:1055E00002430A639A889868ADF8002000260222D8
:1055F00069468DF803208DF8026007F067FD384B8F
:1056000038485A6C42F008025A645A6C42F480429C
:105610005A6403274FF4806302A9012402938DF892
:105620000C608DF80E608DF80F408DF80D7003F052
:105630005BFE2D4B1A6922F470621A611A6942F4FA
:1056400040721A61D3F8002422F48062C3F8002467
:10565000D3F8042422F48062C3F80424D3F800248D
:1056600042F48062C3F80024D3F8082422F4806254
:10567000C3F80824D3F80C2422F48062C3F80C2465
:105680001A4A136843F48063136001A828238DF835
:1056900004308DF805708DF806708DF8074003F022
:1056A000B9FD134B59681A4629B1DB6823B130465E
:1056B00008F038FB07E00C4602EBC4030D495960C3
:1056C000282302F834300C4B4FF480625A610123D6
:1056D00085F8603005B0F0BD141500205809002091
:1056E00000380240000C024000380140083C0140F4
:1056F000181F002001550008003C014070B5274CE0
:10570000274DFFF75DFFFFF75BFFA36880216B204C
:105710009847642008F06DFAA3680721682098472D
:10572000642008F066FAA36800216B209847642083
:1057300008F05FFAA36801216B209847012008F068
:105740004DFAA36818211B209847012008F046FA5B
:10575000A36807211A209847012008F03FFAA368A0
:10576000297819209847012008F038FA0D4B2A783B
:105770009A801021A3681C209847012008F02EFA77
:10578000A368122137209847012008F027FAA36860
:1057900038200121BDE87040184700BF4C090020A7
:1057A0005D0900204217002008B5FFF709FF024BF2
:1057B0004FF480521A8008BD0C000020134B984211
:1057C00007D1134AB2F8623001339BB2A2F86230BB
:1057D00018E0104B984207D10D4AB2F864300133FB
:1057E0009BB2A2F864300DE00B4B98420AD1084AF4
:1057F000B2F8663001339BB2A2F86630B2F86600A8
:1058000080B270474FF0FF30704700BF003001405A
:105810001415002000380040003C004008B540F25C
:10582000E9330289920704D4013B9BB2002BF8D1E3
:105830000AE089B2818140F2E9330289D20706D4B5
:10584000013B9BB2002BF8D1FFF7B8FF00E0808945
:10585000C0B208BD2DE9F0410A4C0B4E4FF48065F3
:1058600090460F46658340F080013046FFF7D6FF33
:105870003046414600223B4607F090FD258301203B
:10588000BDE8F0810010024000380040F8B5094C36
:10589000094E03464FF480650F466583194630462E
:1058A000FFF7BCFF30463946FFF7B8FF25830120DC
:1058B000F8BD00BF0010024000380040022828BF99
:1058C000022014232DE9F04F4343844FFA18FC586B
:1058D000834BB2F8088083F868001C60814BB2F8F3
:1058E0000AA0196B556841F002011963196C41F463
:1058F0000011196406461169186B85B001431963DC
:105900004AEA08090223A5F8189028468DF80330C2
:1059100069461123ADF800908DF8023007F0D6FBF0
:105920004FF0080B2B6918EA030F03D10A2008F087
:1059300055F9F7E70A20A5F81A8008F04FF9A5F8FD
:1059400018800A2008F04AF9BBF1010BEAD10A20BD
:10595000A5F81AA008F042F90A20A5F81A8008F064
:105960003DF90A20A5F8188008F038F90323A5F8B6
:1059700018A028468DF80330694612238DF80230AE
:10598000ADF8009007F0A2FB574B5A6A22F00F02C5
:105990005A625A6A42F004025A625A6A22F0F002CB
:1059A0005A625A6A42F040025A62A3F5D8339C42C6
:1059B00009D103F5F2331A6A42F400121A621A6A24
:1059C00022F4001218E0494B9C4209D103F5F03350
:1059D0001A6A42F480021A621A6A22F480020BE008
:1059E000434B9C4209D103F5EE331A6A42F400029C
:1059F0001A621A6A22F400021A62A38823F440731E
:105A00001B041B0CA38023889BB243F0010323805B
:105A1000A58825F03F052D0468462D0C03F020FCD9
:105A20000299344BB1FBF3F31D43ADB2A58022883C
:105A300022F001021204120C22802F4AB1FBF2F173
:105A400000298AB208BF012242F400414FF4967245
:105A500053434FF47A7293FBF2F301339BB22384E6
:105A6000A18323889BB243F001032380238823F47E
:105A7000816323F002031B041B0C43F48063238027
:105A80004FF480432381142303FB06760025737BA8
:105A90008DF80030012468468DF801508DF80250D1
:105AA0008DF8034003F0B6FB9DF80320337B8DF89F
:105AB00000308DF801508DF802501AB1684603F09D
:105AC000A9FB08E05A0903F01F039C4002F12003E0
:105AD0000A4A42F8234005B0BDE8F08F6C71010816
